{
  "contractName": "Election",
  "abi": [
    {
      "inputs": [],
      "stateMutability": "nonpayable",
      "type": "constructor"
    },
    {
      "anonymous": false,
      "inputs": [
        {
          "indexed": true,
          "internalType": "address",
          "name": "old_electionComissioner",
          "type": "address"
        },
        {
          "indexed": true,
          "internalType": "address",
          "name": "new_electionComissioner",
          "type": "address"
        }
      ],
      "name": "Set_electionComissioner",
      "type": "event"
    },
    {
      "anonymous": false,
      "inputs": [
        {
          "indexed": true,
          "internalType": "address",
          "name": "address_politicalParty",
          "type": "address"
        }
      ],
      "name": "new_partyAdded",
      "type": "event"
    },
    {
      "anonymous": false,
      "inputs": [
        {
          "indexed": true,
          "internalType": "address",
          "name": "address_politicalParty",
          "type": "address"
        }
      ],
      "name": "vote_Casted",
      "type": "event"
    },
    {
      "inputs": [
        {
          "internalType": "address",
          "name": "new_electionComissioner",
          "type": "address"
        }
      ],
      "name": "change_electionComissioner",
      "outputs": [],
      "stateMutability": "nonpayable",
      "type": "function"
    },
    {
      "inputs": [],
      "name": "get_electionComissioner",
      "outputs": [
        {
          "internalType": "address",
          "name": "",
          "type": "address"
        }
      ],
      "stateMutability": "view",
      "type": "function"
    },
    {
      "inputs": [
        {
          "internalType": "address",
          "name": "address_politicalParty",
          "type": "address"
        },
        {
          "internalType": "string",
          "name": "name",
          "type": "string"
        },
        {
          "internalType": "string",
          "name": "symbol",
          "type": "string"
        },
        {
          "internalType": "uint64",
          "name": "votes",
          "type": "uint64"
        }
      ],
      "name": "add_PoliticalParty",
      "outputs": [],
      "stateMutability": "nonpayable",
      "type": "function"
    },
    {
      "inputs": [
        {
          "internalType": "address",
          "name": "anonymised_voter",
          "type": "address"
        }
      ],
      "name": "unlock_votingRight",
      "outputs": [],
      "stateMutability": "nonpayable",
      "type": "function"
    },
    {
      "inputs": [
        {
          "internalType": "address",
          "name": "address_politicalParty",
          "type": "address"
        }
      ],
      "name": "get_PoliticalParty",
      "outputs": [
        {
          "internalType": "string",
          "name": "",
          "type": "string"
        },
        {
          "internalType": "string",
          "name": "",
          "type": "string"
        },
        {
          "internalType": "uint64",
          "name": "",
          "type": "uint64"
        }
      ],
      "stateMutability": "view",
      "type": "function"
    },
    {
      "inputs": [
        {
          "internalType": "address",
          "name": "address_politicalParty",
          "type": "address"
        },
        {
          "internalType": "uint256",
          "name": "n2",
          "type": "uint256"
        }
      ],
      "name": "castVote",
      "outputs": [],
      "stateMutability": "nonpayable",
      "type": "function"
    },
    {
      "inputs": [
        {
          "internalType": "uint256",
          "name": "voting_receipt",
          "type": "uint256"
        },
        {
          "internalType": "uint256",
          "name": "otp",
          "type": "uint256"
        }
      ],
      "name": "populate_successful_votes",
      "outputs": [],
      "stateMutability": "nonpayable",
      "type": "function"
    }
  ],
  "bytecode": "0x60806040523480156200001157600080fd5b50620000426040518060600160405280602a815260200162001870602a9139336200010360201b62000b0e1760201c565b336000806101000a81548173ffffffffffffffffffffffffffffffffffffffff021916908373ffffffffffffffffffffffffffffffffffffffff16021790555060008054906101000a900473ffffffffffffffffffffffffffffffffffffffff1673ffffffffffffffffffffffffffffffffffffffff16600073ffffffffffffffffffffffffffffffffffffffff167f942db86ae407d2783b2fd0b30995c4dfd17013db730df81914a0dd1ff242a23f60405160405180910390a3620002e5565b620001a582826040516024016200011c929190620002b1565b6040516020818303038152906040527f319af333000000000000000000000000000000000000000000000000000000007bffffffffffffffffffffffffffffffffffffffffffffffffffffffff19166020820180517bffffffffffffffffffffffffffffffffffffffffffffffffffffffff8381831617835250505050620001a960201b60201c565b5050565b60008151905060006a636f6e736f6c652e6c6f679050602083016000808483855afa5050505050565b600081519050919050565b600082825260208201905092915050565b60005b838110156200020e578082015181840152602081019050620001f1565b60008484015250505050565b6000601f19601f8301169050919050565b60006200023882620001d2565b620002448185620001dd565b935062000256818560208601620001ee565b62000261816200021a565b840191505092915050565b600073ffffffffffffffffffffffffffffffffffffffff82169050919050565b600062000299826200026c565b9050919050565b620002ab816200028c565b82525050565b60006040820190508181036000830152620002cd81856200022b565b9050620002de6020830184620002a0565b9392505050565b61157b80620002f56000396000f3fe608060405234801561001057600080fd5b506004361061007d5760003560e01c8063afe368ae1161005b578063afe368ae146100ee578063c75d2e471461010a578063de1c863314610126578063ff91bb45146101425761007d565b806339c04354146100825780636ff6a9ea146100b457806386956a14146100d0575b600080fd5b61009c60048036038101906100979190610c3b565b61015e565b6040516100ab93929190610d1b565b60405180910390f35b6100ce60048036038101906100c99190610c3b565b610363565b005b6100d86104ae565b6040516100e59190610d6f565b60405180910390f35b61010860048036038101906101039190610e1b565b6104d7565b005b610124600480360381019061011f9190610ef8565b6106bd565b005b610140600480360381019061013b9190610c3b565b6106f5565b005b61015c60048036038101906101579190610f38565b6107f2565b005b6060806000600160008573ffffffffffffffffffffffffffffffffffffffff1673ffffffffffffffffffffffffffffffffffffffff168152602001908152602001600020600001600160008673ffffffffffffffffffffffffffffffffffffffff1673ffffffffffffffffffffffffffffffffffffffff168152602001908152602001600020600101600160008773ffffffffffffffffffffffffffffffffffffffff1673ffffffffffffffffffffffffffffffffffffffff16815260200190815260200160002060020160009054906101000a900467ffffffffffffffff1682805461024a90610fa7565b80601f016020809104026020016040519081016040528092919081815260200182805461027690610fa7565b80156102c35780601f10610298576101008083540402835291602001916102c3565b820191906000526020600020905b8154815290600101906020018083116102a657829003601f168201915b505050505092508180546102d690610fa7565b80601f016020809104026020016040519081016040528092919081815260200182805461030290610fa7565b801561034f5780601f106103245761010080835404028352916020019161034f565b820191906000526020600020905b81548152906001019060200180831161033257829003601f168201915b505050505091509250925092509193909250565b60008054906101000a900473ffffffffffffffffffffffffffffffffffffffff1673ffffffffffffffffffffffffffffffffffffffff163373ffffffffffffffffffffffffffffffffffffffff16146103f1576040517f08c379a00000000000000000000000000000000000000000000000000000000081526004016103e89061104a565b60405180910390fd5b8073ffffffffffffffffffffffffffffffffffffffff1660008054906101000a900473ffffffffffffffffffffffffffffffffffffffff1673ffffffffffffffffffffffffffffffffffffffff167f942db86ae407d2783b2fd0b30995c4dfd17013db730df81914a0dd1ff242a23f60405160405180910390a3806000806101000a81548173ffffffffffffffffffffffffffffffffffffffff021916908373ffffffffffffffffffffffffffffffffffffffff16021790555050565b60008060009054906101000a900473ffffffffffffffffffffffffffffffffffffffff16905090565b60008054906101000a900473ffffffffffffffffffffffffffffffffffffffff1673ffffffffffffffffffffffffffffffffffffffff163373ffffffffffffffffffffffffffffffffffffffff1614610565576040517f08c379a000000000000000000000000000000000000000000000000000000000815260040161055c9061104a565b60405180910390fd5b8484600160008973ffffffffffffffffffffffffffffffffffffffff1673ffffffffffffffffffffffffffffffffffffffff16815260200190815260200160002060000191826105b6929190611250565b508282600160008973ffffffffffffffffffffffffffffffffffffffff1673ffffffffffffffffffffffffffffffffffffffff1681526020019081526020016000206001019182610608929190611250565b5080600160008873ffffffffffffffffffffffffffffffffffffffff1673ffffffffffffffffffffffffffffffffffffffff16815260200190815260200160002060020160006101000a81548167ffffffffffffffff021916908367ffffffffffffffff1602179055508573ffffffffffffffffffffffffffffffffffffffff167f675e053f2cf1579fc2fdc9de875a40d2bde5be636cfd00953b696d19c9a06b1860405160405180910390a2505050505050565b600481836106cb919061134f565b90806001815401808255809150506001900390600052602060002001600090919091909150555050565b6001600260008373ffffffffffffffffffffffffffffffffffffffff1673ffffffffffffffffffffffffffffffffffffffff16815260200190815260200160002060000160006101000a81548160ff0219169083151502179055506000600260008373ffffffffffffffffffffffffffffffffffffffff1673ffffffffffffffffffffffffffffffffffffffff16815260200190815260200160002060000160016101000a81548160ff0219169083151502179055506107cd60405180606001604052806027815260200161151f6027913933610b0e565b6107ef6040518060600160405280602381526020016114fc6023913982610b0e565b50565b60011515600260003373ffffffffffffffffffffffffffffffffffffffff1673ffffffffffffffffffffffffffffffffffffffff16815260200190815260200160002060000160009054906101000a900460ff16151514610888576040517f08c379a000000000000000000000000000000000000000000000000000000000815260040161087f90611403565b60405180910390fd5b60001515600260003373ffffffffffffffffffffffffffffffffffffffff1673ffffffffffffffffffffffffffffffffffffffff16815260200190815260200160002060000160019054906101000a900460ff1615151461091e576040517f08c379a00000000000000000000000000000000000000000000000000000000081526004016109159061146f565b60405180910390fd5b60018060008473ffffffffffffffffffffffffffffffffffffffff1673ffffffffffffffffffffffffffffffffffffffff16815260200190815260200160002060020160009054906101000a900467ffffffffffffffff16610980919061148f565b600160008473ffffffffffffffffffffffffffffffffffffffff1673ffffffffffffffffffffffffffffffffffffffff16815260200190815260200160002060020160006101000a81548167ffffffffffffffff021916908367ffffffffffffffff1602179055506000600260003373ffffffffffffffffffffffffffffffffffffffff1673ffffffffffffffffffffffffffffffffffffffff16815260200190815260200160002060000160006101000a81548160ff0219169083151502179055506001600260003373ffffffffffffffffffffffffffffffffffffffff1673ffffffffffffffffffffffffffffffffffffffff16815260200190815260200160002060000160016101000a81548160ff02191690831515021790555060038190806001815401808255809150506001900390600052602060002001600090919091909150558173ffffffffffffffffffffffffffffffffffffffff167f46522d1bddd6c9035b02b28da0659fda966d01a27a77dd538357e5b44206b38160405160405180910390a25050565b610ba68282604051602401610b249291906114cb565b6040516020818303038152906040527f319af333000000000000000000000000000000000000000000000000000000007bffffffffffffffffffffffffffffffffffffffffffffffffffffffff19166020820180517bffffffffffffffffffffffffffffffffffffffffffffffffffffffff8381831617835250505050610baa565b5050565b60008151905060006a636f6e736f6c652e6c6f679050602083016000808483855afa5050505050565b600080fd5b600080fd5b600073ffffffffffffffffffffffffffffffffffffffff82169050919050565b6000610c0882610bdd565b9050919050565b610c1881610bfd565b8114610c2357600080fd5b50565b600081359050610c3581610c0f565b92915050565b600060208284031215610c5157610c50610bd3565b5b6000610c5f84828501610c26565b91505092915050565b600081519050919050565b600082825260208201905092915050565b60005b83811015610ca2578082015181840152602081019050610c87565b60008484015250505050565b6000601f19601f8301169050919050565b6000610cca82610c68565b610cd48185610c73565b9350610ce4818560208601610c84565b610ced81610cae565b840191505092915050565b600067ffffffffffffffff82169050919050565b610d1581610cf8565b82525050565b60006060820190508181036000830152610d358186610cbf565b90508181036020830152610d498185610cbf565b9050610d586040830184610d0c565b949350505050565b610d6981610bfd565b82525050565b6000602082019050610d846000830184610d60565b92915050565b600080fd5b600080fd5b600080fd5b60008083601f840112610daf57610dae610d8a565b5b8235905067ffffffffffffffff811115610dcc57610dcb610d8f565b5b602083019150836001820283011115610de857610de7610d94565b5b9250929050565b610df881610cf8565b8114610e0357600080fd5b50565b600081359050610e1581610def565b92915050565b60008060008060008060808789031215610e3857610e37610bd3565b5b6000610e4689828a01610c26565b965050602087013567ffffffffffffffff811115610e6757610e66610bd8565b5b610e7389828a01610d99565b9550955050604087013567ffffffffffffffff811115610e9657610e95610bd8565b5b610ea289828a01610d99565b93509350506060610eb589828a01610e06565b9150509295509295509295565b6000819050919050565b610ed581610ec2565b8114610ee057600080fd5b50565b600081359050610ef281610ecc565b92915050565b60008060408385031215610f0f57610f0e610bd3565b5b6000610f1d85828601610ee3565b9250506020610f2e85828601610ee3565b9150509250929050565b60008060408385031215610f4f57610f4e610bd3565b5b6000610f5d85828601610c26565b9250506020610f6e85828601610ee3565b9150509250929050565b7f4e487b7100000000000000000000000000000000000000000000000000000000600052602260045260246000fd5b60006002820490506001821680610fbf57607f821691505b602082108103610fd257610fd1610f78565b5b50919050565b7f43616c6c6572206973206e6f742074686520656c656374696f6e436f6d69737360008201527f696f6e6572000000000000000000000000000000000000000000000000000000602082015250565b6000611034602583610c73565b915061103f82610fd8565b604082019050919050565b6000602082019050818103600083015261106381611027565b9050919050565b600082905092915050565b7f4e487b7100000000000000000000000000000000000000000000000000000000600052604160045260246000fd5b60008190508160005260206000209050919050565b60006020601f8301049050919050565b600082821b905092915050565b6000600883026111067fffffffffffffffffffffffffffffffffffffffffffffffffffffffffffffffff826110c9565b61111086836110c9565b95508019841693508086168417925050509392505050565b6000819050919050565b600061114d61114861114384610ec2565b611128565b610ec2565b9050919050565b6000819050919050565b61116783611132565b61117b61117382611154565b8484546110d6565b825550505050565b600090565b611190611183565b61119b81848461115e565b505050565b5b818110156111bf576111b4600082611188565b6001810190506111a1565b5050565b601f821115611204576111d5816110a4565b6111de846110b9565b810160208510156111ed578190505b6112016111f9856110b9565b8301826111a0565b50505b505050565b600082821c905092915050565b600061122760001984600802611209565b1980831691505092915050565b60006112408383611216565b9150826002028217905092915050565b61125a838361106a565b67ffffffffffffffff81111561127357611272611075565b5b61127d8254610fa7565b6112888282856111c3565b6000601f8311600181146112b757600084156112a5578287013590505b6112af8582611234565b865550611317565b601f1984166112c5866110a4565b60005b828110156112ed578489013582556001820191506020850194506020810190506112c8565b8683101561130a5784890135611306601f891682611216565b8355505b6001600288020188555050505b50505050505050565b7f4e487b7100000000000000000000000000000000000000000000000000000000600052601160045260246000fd5b600061135a82610ec2565b915061136583610ec2565b925082820261137381610ec2565b9150828204841483151761138a57611389611320565b5b5092915050565b7f43616e646964617465206973206e6f7420616e20656c696769626c6520766f7460008201527f6572000000000000000000000000000000000000000000000000000000000000602082015250565b60006113ed602283610c73565b91506113f882611391565b604082019050919050565b6000602082019050818103600083015261141c816113e0565b9050919050565b7f43616e6469646174652068617320616c726561647920766f7465640000000000600082015250565b6000611459601b83610c73565b915061146482611423565b602082019050919050565b600060208201905081810360008301526114888161144c565b9050919050565b600061149a82610cf8565b91506114a583610cf8565b9250828201905067ffffffffffffffff8111156114c5576114c4611320565b5b92915050565b600060408201905081810360008301526114e58185610cbf565b90506114f46020830184610d60565b939250505056fe20566f74696e6720526967687420556e6c6f636b656420666f722075736572202d3e2020566f74696e6720526967687420556e6c6f636b65642066726f6d20436f6e74726163742d3e20a2646970667358221220631177abb1607cde8c3bbbdbf86712ea4996f40386a6366f606b738018f993b064736f6c63430008110033417373656d626c7920456c656374696f6e20436f6e7472616374204465706c6f796564206279202d3e20",
  "immutableReferences": {},
  "source": "// SPDX-License-Identifier: GPL-3.0\n\npragma solidity ^0.8.11;\n\nimport \"hardhat/console.sol\";\n\n/**\n * @title Owner\n * @dev Set & change owner\n */\ncontract Election {\n\n    address private electionComissioner;\n\n    //Defining party structure\n    struct politicalParty \n    {\n        string name;\n        string symbol;\n        uint64 votes;\n    }\n    \n    // mapping party ID to Struct\n    mapping (address => politicalParty) Party;\n\n    // Defining eligible voter\n    struct voter{\n        bool isEligible;\n        bool hasVoted;\n    }\n    // mapping party ID to Struct\n    mapping (address => voter) Voter;\n    uint256 [] ballot_log;\n    uint256 [] voting_receipt_book;\n\n\n    // event for EVM logging\n    event Set_electionComissioner(address indexed old_electionComissioner, address indexed new_electionComissioner);\n    event vote_Casted(address indexed address_politicalParty);\n    event new_partyAdded(address indexed address_politicalParty);\n\n    // modifier to check if caller is owner\n    modifier is_electionComissioner() {\n        // If the first argument of 'require' evaluates to 'false', execution terminates and all\n        // changes to the state and to Ether balances are reverted.\n        // This used to consume all gas in old EVM versions, but not anymore.\n        // It is often a good idea to use 'require' to check if functions are called correctly.\n        // As a second argument, you can also provide an explanation about what went wrong.\n        require(msg.sender == electionComissioner, \"Caller is not the electionComissioner\");\n        _;\n    }\n\n    modifier is_validVoter(){\n        require(Voter[msg.sender].isEligible == true, \"Candidate is not an eligible voter\");\n        require(Voter[msg.sender].hasVoted == false, \"Candidate has already voted\");\n        _;\n    }\n\n    /**\n     * @dev Set contract deployer as owner\n     */\n    constructor() public {\n        console.log(\"Assembly Election Contract Deployed by -> \", msg.sender);\n        electionComissioner = msg.sender; // 'msg.sender' is sender of current call, contract deployer for a constructor\n        emit Set_electionComissioner(address(0), electionComissioner);\n    }\n\n    /**\n     * @dev Change owner\n     * @param new_electionComissioner address of new owner\n     */\n    function change_electionComissioner(address new_electionComissioner) public is_electionComissioner {\n        emit Set_electionComissioner(electionComissioner, new_electionComissioner);\n        electionComissioner = new_electionComissioner;\n    }\n\n    /**\n     * @dev Return owner address \n     * @return address of owner\n     */\n    function get_electionComissioner() external view returns (address) {\n        return electionComissioner;\n    }\n\n    function add_PoliticalParty(address address_politicalParty, string calldata name,string calldata symbol,uint64 votes) public is_electionComissioner {\n        Party[address_politicalParty].name = name;\n        Party[address_politicalParty].symbol = symbol;\n        Party[address_politicalParty].votes = votes;\n        emit new_partyAdded(address_politicalParty);\n\n    }\n\n    function unlock_votingRight(address anonymised_voter) public {\n        Voter[anonymised_voter].isEligible = true;\n        Voter[anonymised_voter].hasVoted = false;\n        console.log(\" Voting Right Unlocked from Contract-> \", msg.sender);\n        console.log(\" Voting Right Unlocked for user -> \", anonymised_voter);\n    }\n\n    function get_PoliticalParty(address address_politicalParty) external view returns(string memory,string memory ,uint64){\n        return(Party[address_politicalParty].name,Party[address_politicalParty].symbol,Party[address_politicalParty].votes);\n    }\n\n    function castVote(address address_politicalParty, uint256 n2) public is_validVoter {\n        Party[address_politicalParty].votes = Party[address_politicalParty].votes + 1;\n        Voter[msg.sender].isEligible = false;\n        Voter[msg.sender].hasVoted = true;\n        ballot_log.push(n2); \n        //Destroy the verification Contract\n        emit vote_Casted(address_politicalParty);\n    }\n\n    function populate_successful_votes(uint256 voting_receipt, uint256 otp) public{\n        voting_receipt_book.push(voting_receipt * otp);\n    }\n    \n}\n",
  "sourcePath": "/home/samurai/zkElection/contracts/Election.sol",
  "compiler": {
    "name": "solc",
    "version": "0.8.17+commit.8df45f5f.Emscripten.clang"
  },
  "schemaVersion": "3.4.10",
  "updatedAt": "2022-09-17T06:17:25.401Z",
  "devdoc": {
    "details": "Set & change owner",
    "kind": "dev",
    "methods": {
      "change_electionComissioner(address)": {
        "details": "Change owner",
        "params": {
          "new_electionComissioner": "address of new owner"
        }
      },
      "constructor": {
        "details": "Set contract deployer as owner"
      },
      "get_electionComissioner()": {
        "details": "Return owner address ",
        "returns": {
          "_0": "address of owner"
        }
      }
    },
    "title": "Owner",
    "version": 1
  },
  "userdoc": {
    "kind": "user",
    "methods": {},
    "version": 1
  }
}